{
  "contractName": "Voting",
  "abi": [
    {
      "constant": true,
      "inputs": [
        {
          "name": "",
          "type": "uint256"
        }
      ],
      "name": "candidates",
      "outputs": [
        {
          "name": "id",
          "type": "uint256"
        },
        {
          "name": "candidateName",
          "type": "string"
        },
        {
          "name": "voteNumber",
          "type": "uint256"
        }
      ],
      "payable": false,
      "stateMutability": "view",
      "type": "function",
      "signature": "0x3477ee2e"
    },
    {
      "constant": true,
      "inputs": [],
      "name": "candidateNumber",
      "outputs": [
        {
          "name": "",
          "type": "uint256"
        }
      ],
      "payable": false,
      "stateMutability": "view",
      "type": "function",
      "signature": "0x3b802421"
    },
    {
      "constant": true,
      "inputs": [
        {
          "name": "",
          "type": "uint256"
        }
      ],
      "name": "badmintonCandidates",
      "outputs": [
        {
          "name": "id",
          "type": "uint256"
        },
        {
          "name": "candidateName",
          "type": "string"
        },
        {
          "name": "voteNumber",
          "type": "uint256"
        }
      ],
      "payable": false,
      "stateMutability": "view",
      "type": "function",
      "signature": "0x427f9075"
    },
    {
      "constant": true,
      "inputs": [],
      "name": "candidate",
      "outputs": [
        {
          "name": "",
          "type": "string"
        }
      ],
      "payable": false,
      "stateMutability": "view",
      "type": "function",
      "signature": "0x6c8381f8"
    },
    {
      "constant": true,
      "inputs": [],
      "name": "badmintonNumber",
      "outputs": [
        {
          "name": "",
          "type": "uint256"
        }
      ],
      "payable": false,
      "stateMutability": "view",
      "type": "function",
      "signature": "0x98118e73"
    },
    {
      "constant": true,
      "inputs": [
        {
          "name": "",
          "type": "address"
        }
      ],
      "name": "studentSociety",
      "outputs": [
        {
          "name": "",
          "type": "bool"
        }
      ],
      "payable": false,
      "stateMutability": "view",
      "type": "function",
      "signature": "0xaaf9d2bc"
    },
    {
      "constant": true,
      "inputs": [
        {
          "name": "",
          "type": "address"
        }
      ],
      "name": "student",
      "outputs": [
        {
          "name": "",
          "type": "bool"
        }
      ],
      "payable": false,
      "stateMutability": "view",
      "type": "function",
      "signature": "0xdaadd00f"
    },
    {
      "inputs": [],
      "payable": false,
      "stateMutability": "nonpayable",
      "type": "constructor",
      "signature": "constructor"
    },
    {
      "anonymous": false,
      "inputs": [
        {
          "indexed": true,
          "name": "_idCandidate",
          "type": "uint256"
        }
      ],
      "name": "voted",
      "type": "event",
      "signature": "0x8fbb38ff86a5b319c33b22609be0afce04335d5db18c6bd100767e251d4028cc"
    },
    {
      "constant": false,
      "inputs": [
        {
          "name": "_idCandidate",
          "type": "uint256"
        }
      ],
      "name": "elect",
      "outputs": [],
      "payable": false,
      "stateMutability": "nonpayable",
      "type": "function",
      "signature": "0x3551b7fb"
    },
    {
      "constant": false,
      "inputs": [
        {
          "name": "_idCandidate",
          "type": "uint256"
        }
      ],
      "name": "societyElection",
      "outputs": [],
      "payable": false,
      "stateMutability": "nonpayable",
      "type": "function",
      "signature": "0xa610896b"
    }
  ],
  "bytecode": "0x608060405234801561001057600080fd5b5061005e6040805190810160405280600b81526020017f43616e64696461746520310000000000000000000000000000000000000000008152506101e4640100000000026401000000009004565b6100ab6040805190810160405280600b81526020017f43616e64696461746520320000000000000000000000000000000000000000008152506101e4640100000000026401000000009004565b6100f86040805190810160405280600b81526020017f43616e64696461746520330000000000000000000000000000000000000000008152506101e4640100000000026401000000009004565b6101456040805190810160405280600b81526020017f43616e6469646174652034000000000000000000000000000000000000000000815250610261640100000000026401000000009004565b6101926040805190810160405280600b81526020017f43616e6469646174652035000000000000000000000000000000000000000000815250610261640100000000026401000000009004565b6101df6040805190810160405280600b81526020017f43616e6469646174652036000000000000000000000000000000000000000000815250610261640100000000026401000000009004565b610383565b600160008154809291906001019190505550606060405190810160405280600154815260200182815260200160008152506005600060015481526020019081526020016000206000820151816000015560208201518160010190805190602001906102509291906102de565b506040820151816002015590505050565b600260008154809291906001019190505550606060405190810160405280600254815260200182815260200160008152506006600060025481526020019081526020016000206000820151816000015560208201518160010190805190602001906102cd9291906102de565b506040820151816002015590505050565b828054600181600116156101000203166002900490600052602060002090601f016020900481019282601f1061031f57805160ff191683800117855561034d565b8280016001018555821561034d579182015b8281111561034c578251825591602001919060010190610331565b5b50905061035a919061035e565b5090565b61038091905b8082111561037c576000816000905550600101610364565b5090565b90565b6108f280620003936000396000f300608060405260043610610099576000357c0100000000000000000000000000000000000000000000000000000000900463ffffffff1680633477ee2e1461009e5780633551b7fb146101525780633b8024211461017f578063427f9075146101aa5780636c8381f81461025e57806398118e73146102ee578063a610896b14610319578063aaf9d2bc14610346578063daadd00f146103a1575b600080fd5b3480156100aa57600080fd5b506100c9600480360381019080803590602001909291905050506103fc565b6040518084815260200180602001838152602001828103825284818151815260200191508051906020019080838360005b838110156101155780820151818401526020810190506100fa565b50505050905090810190601f1680156101425780820380516001836020036101000a031916815260200191505b5094505050505060405180910390f35b34801561015e57600080fd5b5061017d600480360381019080803590602001909291905050506104be565b005b34801561018b57600080fd5b506101946105ec565b6040518082815260200191505060405180910390f35b3480156101b657600080fd5b506101d5600480360381019080803590602001909291905050506105f2565b6040518084815260200180602001838152602001828103825284818151815260200191508051906020019080838360005b83811015610221578082015181840152602081019050610206565b50505050905090810190601f16801561024e5780820380516001836020036101000a031916815260200191505b5094505050505060405180910390f35b34801561026a57600080fd5b506102736106b4565b6040518080602001828103825283818151815260200191508051906020019080838360005b838110156102b3578082015181840152602081019050610298565b50505050905090810190601f1680156102e05780820380516001836020036101000a031916815260200191505b509250505060405180910390f35b3480156102fa57600080fd5b50610303610752565b6040518082815260200191505060405180910390f35b34801561032557600080fd5b5061034460048036038101908080359060200190929190505050610758565b005b34801561035257600080fd5b50610387600480360381019080803573ffffffffffffffffffffffffffffffffffffffff169060200190929190505050610886565b604051808215151515815260200191505060405180910390f35b3480156103ad57600080fd5b506103e2600480360381019080803573ffffffffffffffffffffffffffffffffffffffff1690602001909291905050506108a6565b604051808215151515815260200191505060405180910390f35b6005602052806000526040600020600091509050806000015490806001018054600181600116156101000203166002900480601f0160208091040260200160405190810160405280929190818152602001828054600181600116156101000203166002900480156104ae5780601f10610483576101008083540402835291602001916104ae565b820191906000526020600020905b81548152906001019060200180831161049157829003601f168201915b5050505050908060020154905083565b6000600360003373ffffffffffffffffffffffffffffffffffffffff1673ffffffffffffffffffffffffffffffffffffffff16815260200190815260200160002060009054906101000a900460ff1615151561051957600080fd5b6002546001540190506000821180156105325750808211155b151561053d57600080fd5b6001600360003373ffffffffffffffffffffffffffffffffffffffff1673ffffffffffffffffffffffffffffffffffffffff16815260200190815260200160002060006101000a81548160ff0219169083151502179055506005600083815260200190815260200160002060020160008154809291906001019190505550817f8fbb38ff86a5b319c33b22609be0afce04335d5db18c6bd100767e251d4028cc60405160405180910390a25050565b60015481565b6006602052806000526040600020600091509050806000015490806001018054600181600116156101000203166002900480601f0160208091040260200160405190810160405280929190818152602001828054600181600116156101000203166002900480156106a45780601f10610679576101008083540402835291602001916106a4565b820191906000526020600020905b81548152906001019060200180831161068757829003601f168201915b5050505050908060020154905083565b60008054600181600116156101000203166002900480601f01602080910402602001604051908101604052809291908181526020018280546001816001161561010002031660029004801561074a5780601f1061071f5761010080835404028352916020019161074a565b820191906000526020600020905b81548152906001019060200180831161072d57829003601f168201915b505050505081565b60025481565b6000600460003373ffffffffffffffffffffffffffffffffffffffff1673ffffffffffffffffffffffffffffffffffffffff16815260200190815260200160002060009054906101000a900460ff161515156107b357600080fd5b6002546001540190506000821180156107cc5750808211155b15156107d757600080fd5b6001600460003373ffffffffffffffffffffffffffffffffffffffff1673ffffffffffffffffffffffffffffffffffffffff16815260200190815260200160002060006101000a81548160ff0219169083151502179055506006600083815260200190815260200160002060020160008154809291906001019190505550817f8fbb38ff86a5b319c33b22609be0afce04335d5db18c6bd100767e251d4028cc60405160405180910390a25050565b60046020528060005260406000206000915054906101000a900460ff1681565b60036020528060005260406000206000915054906101000a900460ff16815600a165627a7a72305820756631a1148969d57a0df2f0b882b0df3417693c631404b2788ad42e3c9ae81e0029",
  "source": "pragma solidity ^0.4.11;\n\ncontract Voting {\n  //Constructor is always run whenever the contract is started\n  //upon migrations\n\n  //Gives a state variable that can be stored as a string\n  //State variable is a getter function\n  string public candidate;\n\n  struct Candidate{\n    uint id;\n    string candidateName;\n    uint voteNumber;\n\n  }\n  //stores the number of candidates involved\n  uint public candidateNumber;\n\n  //stores the number of badminton candidates that are involved\n  uint public badmintonNumber;\n\n  // Stores the accounts that have voted\n  // Keeps track that the voter has voted\n  mapping(address => bool) public student;\n\n  mapping(address => bool) public studentSociety;\n\n\n  //Fetches the candidates to select from\n  mapping(uint => Candidate) public candidates;\n\n  //Fetches the badminton candidates to select\n  mapping(uint => Candidate) public badmintonCandidates;\n\n  //Ensures outsiders can not change the candidates that have\n  //been nominated\n\n  event voted(\n    uint indexed _idCandidate\n  );\n\n\n  function addSU (string _name) private{\n    candidateNumber++;\n    candidates[candidateNumber] = Candidate(candidateNumber, _name, 0);\n\n  }\n\n  function addBadminton (string _name) private{\n    badmintonNumber++;\n    badmintonCandidates[badmintonNumber] = Candidate(badmintonNumber, _name, 0);\n  }\n\n\n  constructor() public{\n    //the state variable represents data that belongs to the entire\n    //contract\n    addSU(\"Candidate 1\");\n    addSU(\"Candidate 2\");\n    addSU(\"Candidate 3\");\n    addBadminton(\"Candidate 4\");\n    addBadminton(\"Candidate 5\");\n    addBadminton(\"Candidate 6\");\n  }\n\n  function elect (uint _idCandidate) public{\n    //voter must not have voted before\n    //checks that address is not in student mapping\n    require(!student[msg.sender]);\n\n    //The candidate that is being voted is in the Candidate mapping\n    uint totalCandidates = candidateNumber + badmintonNumber;\n    require(_idCandidate > 0 && _idCandidate <= totalCandidates);\n\n    //Records that the student has voted\n    student[msg.sender] = true;\n\n    //Updates candidates vote number\n    candidates[_idCandidate].voteNumber ++;\n\n\n  emit voted(_idCandidate);\n\n  }\n\n  function societyElection(uint _idCandidate) public{\n\n  require(!studentSociety[msg.sender]);\n\n  uint totalCandidates = candidateNumber + badmintonNumber;\n  require(_idCandidate > 0 && _idCandidate <= totalCandidates);\n\n  //Records that the student has voted\n  studentSociety[msg.sender] = true;\n\n  badmintonCandidates[_idCandidate].voteNumber ++;\n\n\n  emit voted(_idCandidate);\n\n  }\n\n\n\n\n\n\n}\n",
  "sourcePath": "/Users/lubnahmasembe/QMVoting/contracts/voting.sol",
  "compiler": {
    "name": "solc",
    "version": "0.4.25+commit.59dbf8f1.Emscripten.clang"
  },
  "schemaVersion": "3.0.6",
  "updatedAt": "2019-04-23T13:52:40.709Z",
  "devdoc": {
    "methods": {}
  },
  "userdoc": {
    "methods": {}
  }
}